{
  "_format": "hh-sol-artifact-1",
  "contractName": "WIDEANGLE",
  "sourceName": "contracts/wideangle.sol",
  "abi": [
    {
      "inputs": [
        {
          "internalType": "string",
          "name": "name",
          "type": "string"
        },
        {
          "internalType": "string",
          "name": "symbol",
          "type": "string"
        },
        {
          "internalType": "string",
          "name": "baseURI",
          "type": "string"
        },
        {
          "internalType": "uint256[]",
          "name": "categoryMaxSupplies",
          "type": "uint256[]"
        },
        {
          "internalType": "uint256[]",
          "name": "categoryCounters",
          "type": "uint256[]"
        },
        {
          "internalType": "uint256[]",
          "name": "categoryPrices",
          "type": "uint256[]"
        },
        {
          "internalType": "uint256[]",
          "name": "categoryPreSalePrices",
          "type": "uint256[]"
        },
        {
          "internalType": "uint256[]",
          "name": "categoryPrivSalePrices",
          "type": "uint256[]"
        }
      ],
      "stateMutability": "nonpayable",
      "type": "constructor"
    },
    {
      "anonymous": false,
      "inputs": [
        {
          "indexed": true,
          "internalType": "address",
          "name": "owner",
          "type": "address"
        },
        {
          "indexed": true,
          "internalType": "address",
          "name": "approved",
          "type": "address"
        },
        {
          "indexed": true,
          "internalType": "uint256",
          "name": "tokenId",
          "type": "uint256"
        }
      ],
      "name": "Approval",
      "type": "event"
    },
    {
      "anonymous": false,
      "inputs": [
        {
          "indexed": true,
          "internalType": "address",
          "name": "owner",
          "type": "address"
        },
        {
          "indexed": true,
          "internalType": "address",
          "name": "operator",
          "type": "address"
        },
        {
          "indexed": false,
          "internalType": "bool",
          "name": "approved",
          "type": "bool"
        }
      ],
      "name": "ApprovalForAll",
      "type": "event"
    },
    {
      "anonymous": false,
      "inputs": [
        {
          "indexed": false,
          "internalType": "address",
          "name": "ownerAddress",
          "type": "address"
        },
        {
          "indexed": false,
          "internalType": "uint256[]",
          "name": "categories",
          "type": "uint256[]"
        }
      ],
      "name": "Minted",
      "type": "event"
    },
    {
      "anonymous": false,
      "inputs": [
        {
          "indexed": true,
          "internalType": "address",
          "name": "previousOwner",
          "type": "address"
        },
        {
          "indexed": true,
          "internalType": "address",
          "name": "newOwner",
          "type": "address"
        }
      ],
      "name": "OwnershipTransferred",
      "type": "event"
    },
    {
      "anonymous": false,
      "inputs": [
        {
          "indexed": false,
          "internalType": "uint256",
          "name": "diamond",
          "type": "uint256"
        },
        {
          "indexed": false,
          "internalType": "uint256",
          "name": "gold",
          "type": "uint256"
        },
        {
          "indexed": false,
          "internalType": "uint256",
          "name": "silver",
          "type": "uint256"
        },
        {
          "indexed": false,
          "internalType": "uint256",
          "name": "bronze",
          "type": "uint256"
        }
      ],
      "name": "PricesChanged",
      "type": "event"
    },
    {
      "anonymous": false,
      "inputs": [
        {
          "indexed": true,
          "internalType": "address",
          "name": "from",
          "type": "address"
        },
        {
          "indexed": true,
          "internalType": "address",
          "name": "to",
          "type": "address"
        },
        {
          "indexed": true,
          "internalType": "uint256",
          "name": "tokenId",
          "type": "uint256"
        }
      ],
      "name": "Transfer",
      "type": "event"
    },
    {
      "inputs": [],
      "name": "WIDEANGLE_OWNER",
      "outputs": [
        {
          "internalType": "address",
          "name": "",
          "type": "address"
        }
      ],
      "stateMutability": "view",
      "type": "function"
    },
    {
      "inputs": [
        {
          "internalType": "address[]",
          "name": "whitelistAddresses",
          "type": "address[]"
        }
      ],
      "name": "addWhitelist",
      "outputs": [],
      "stateMutability": "nonpayable",
      "type": "function"
    },
    {
      "inputs": [
        {
          "internalType": "address",
          "name": "to",
          "type": "address"
        },
        {
          "internalType": "uint256",
          "name": "tokenId",
          "type": "uint256"
        }
      ],
      "name": "approve",
      "outputs": [],
      "stateMutability": "nonpayable",
      "type": "function"
    },
    {
      "inputs": [
        {
          "internalType": "address",
          "name": "owner",
          "type": "address"
        }
      ],
      "name": "balanceOf",
      "outputs": [
        {
          "internalType": "uint256",
          "name": "",
          "type": "uint256"
        }
      ],
      "stateMutability": "view",
      "type": "function"
    },
    {
      "inputs": [
        {
          "internalType": "address",
          "name": "newOwner",
          "type": "address"
        }
      ],
      "name": "changeOwner",
      "outputs": [],
      "stateMutability": "nonpayable",
      "type": "function"
    },
    {
      "inputs": [
        {
          "internalType": "uint256",
          "name": "diamond",
          "type": "uint256"
        },
        {
          "internalType": "uint256",
          "name": "gold",
          "type": "uint256"
        },
        {
          "internalType": "uint256",
          "name": "silver",
          "type": "uint256"
        },
        {
          "internalType": "uint256",
          "name": "bronze",
          "type": "uint256"
        }
      ],
      "name": "changePreSaleMintPrice",
      "outputs": [],
      "stateMutability": "nonpayable",
      "type": "function"
    },
    {
      "inputs": [
        {
          "internalType": "uint256",
          "name": "diamond",
          "type": "uint256"
        },
        {
          "internalType": "uint256",
          "name": "gold",
          "type": "uint256"
        },
        {
          "internalType": "uint256",
          "name": "silver",
          "type": "uint256"
        },
        {
          "internalType": "uint256",
          "name": "bronze",
          "type": "uint256"
        }
      ],
      "name": "changePublicSaleMintPrice",
      "outputs": [],
      "stateMutability": "nonpayable",
      "type": "function"
    },
    {
      "inputs": [
        {
          "internalType": "uint256",
          "name": "tokenId",
          "type": "uint256"
        }
      ],
      "name": "getApproved",
      "outputs": [
        {
          "internalType": "address",
          "name": "",
          "type": "address"
        }
      ],
      "stateMutability": "view",
      "type": "function"
    },
    {
      "inputs": [
        {
          "internalType": "address",
          "name": "owner",
          "type": "address"
        },
        {
          "internalType": "address",
          "name": "operator",
          "type": "address"
        }
      ],
      "name": "isApprovedForAll",
      "outputs": [
        {
          "internalType": "bool",
          "name": "",
          "type": "bool"
        }
      ],
      "stateMutability": "view",
      "type": "function"
    },
    {
      "inputs": [],
      "name": "name",
      "outputs": [
        {
          "internalType": "string",
          "name": "",
          "type": "string"
        }
      ],
      "stateMutability": "view",
      "type": "function"
    },
    {
      "inputs": [
        {
          "internalType": "uint256",
          "name": "numberOfTokens",
          "type": "uint256"
        },
        {
          "internalType": "uint256",
          "name": "_category",
          "type": "uint256"
        }
      ],
      "name": "ownerMint",
      "outputs": [],
      "stateMutability": "nonpayable",
      "type": "function"
    },
    {
      "inputs": [
        {
          "internalType": "uint256",
          "name": "tokenId",
          "type": "uint256"
        }
      ],
      "name": "ownerOf",
      "outputs": [
        {
          "internalType": "address",
          "name": "",
          "type": "address"
        }
      ],
      "stateMutability": "view",
      "type": "function"
    },
    {
      "inputs": [
        {
          "internalType": "uint256",
          "name": "_switch",
          "type": "uint256"
        }
      ],
      "name": "paymentMethod",
      "outputs": [],
      "stateMutability": "nonpayable",
      "type": "function"
    },
    {
      "inputs": [
        {
          "internalType": "uint256[]",
          "name": "_categories",
          "type": "uint256[]"
        }
      ],
      "name": "preSaleMint",
      "outputs": [],
      "stateMutability": "payable",
      "type": "function"
    },
    {
      "inputs": [
        {
          "internalType": "uint256[]",
          "name": "categories",
          "type": "uint256[]"
        }
      ],
      "name": "privateSale",
      "outputs": [],
      "stateMutability": "nonpayable",
      "type": "function"
    },
    {
      "inputs": [
        {
          "internalType": "uint256[]",
          "name": "categories",
          "type": "uint256[]"
        }
      ],
      "name": "publicSaleMint",
      "outputs": [],
      "stateMutability": "payable",
      "type": "function"
    },
    {
      "inputs": [
        {
          "internalType": "address",
          "name": "from",
          "type": "address"
        },
        {
          "internalType": "address",
          "name": "to",
          "type": "address"
        },
        {
          "internalType": "uint256",
          "name": "tokenId",
          "type": "uint256"
        }
      ],
      "name": "safeTransferFrom",
      "outputs": [],
      "stateMutability": "nonpayable",
      "type": "function"
    },
    {
      "inputs": [
        {
          "internalType": "address",
          "name": "from",
          "type": "address"
        },
        {
          "internalType": "address",
          "name": "to",
          "type": "address"
        },
        {
          "internalType": "uint256",
          "name": "tokenId",
          "type": "uint256"
        },
        {
          "internalType": "bytes",
          "name": "_data",
          "type": "bytes"
        }
      ],
      "name": "safeTransferFrom",
      "outputs": [],
      "stateMutability": "nonpayable",
      "type": "function"
    },
    {
      "inputs": [
        {
          "internalType": "address",
          "name": "operator",
          "type": "address"
        },
        {
          "internalType": "bool",
          "name": "approved",
          "type": "bool"
        }
      ],
      "name": "setApprovalForAll",
      "outputs": [],
      "stateMutability": "nonpayable",
      "type": "function"
    },
    {
      "inputs": [
        {
          "internalType": "string",
          "name": "newUri",
          "type": "string"
        }
      ],
      "name": "setBaseURI",
      "outputs": [],
      "stateMutability": "nonpayable",
      "type": "function"
    },
    {
      "inputs": [
        {
          "internalType": "address[]",
          "name": "addresses",
          "type": "address[]"
        }
      ],
      "name": "setPrivateSaleAddresses",
      "outputs": [],
      "stateMutability": "nonpayable",
      "type": "function"
    },
    {
      "inputs": [],
      "name": "setSalePermission",
      "outputs": [],
      "stateMutability": "nonpayable",
      "type": "function"
    },
    {
      "inputs": [
        {
          "internalType": "bytes4",
          "name": "interfaceId",
          "type": "bytes4"
        }
      ],
      "name": "supportsInterface",
      "outputs": [
        {
          "internalType": "bool",
          "name": "",
          "type": "bool"
        }
      ],
      "stateMutability": "view",
      "type": "function"
    },
    {
      "inputs": [
        {
          "internalType": "uint256",
          "name": "whichFunction",
          "type": "uint256"
        }
      ],
      "name": "switchMintFunction",
      "outputs": [],
      "stateMutability": "nonpayable",
      "type": "function"
    },
    {
      "inputs": [],
      "name": "symbol",
      "outputs": [
        {
          "internalType": "string",
          "name": "",
          "type": "string"
        }
      ],
      "stateMutability": "view",
      "type": "function"
    },
    {
      "inputs": [
        {
          "internalType": "uint256",
          "name": "tokenId",
          "type": "uint256"
        }
      ],
      "name": "tokenURI",
      "outputs": [
        {
          "internalType": "string",
          "name": "",
          "type": "string"
        }
      ],
      "stateMutability": "view",
      "type": "function"
    },
    {
      "inputs": [],
      "name": "totalSupply",
      "outputs": [
        {
          "internalType": "uint256",
          "name": "",
          "type": "uint256"
        }
      ],
      "stateMutability": "view",
      "type": "function"
    },
    {
      "inputs": [
        {
          "internalType": "address",
          "name": "from",
          "type": "address"
        },
        {
          "internalType": "address",
          "name": "to",
          "type": "address"
        },
        {
          "internalType": "uint256",
          "name": "tokenId",
          "type": "uint256"
        }
      ],
      "name": "transferFrom",
      "outputs": [],
      "stateMutability": "nonpayable",
      "type": "function"
    },
    {
      "inputs": [
        {
          "internalType": "uint256",
          "name": "tokenId",
          "type": "uint256"
        }
      ],
      "name": "whichCategory",
      "outputs": [
        {
          "internalType": "string",
          "name": "",
          "type": "string"
        }
      ],
      "stateMutability": "view",
      "type": "function"
    }
  ],
  "bytecode": "0x60806040523480156200001157600080fd5b5060405162005f2138038062005f2183398181016040528101906200003791906200059b565b878781600090816200004a91906200099d565b5080600190816200005c91906200099d565b505050600160068190555060005b60038111620001a15785818151811062000089576200008862000a84565b5b6020026020010151600b600083815260200190815260200160002060010181905550838181518110620000c157620000c062000a84565b5b6020026020010151600b600083815260200190815260200160002060020181905550848181518110620000f957620000f862000a84565b5b6020026020010151600b60008381526020019081526020016000206000018190555081818151811062000131576200013062000a84565b5b6020026020010151600b60008381526020019081526020016000206004018190555082818151811062000169576200016862000a84565b5b6020026020010151600b6000838152602001908152602001600020600301819055508080620001989062000ae2565b9150506200006a565b50620001b2620002e060201b60201c565b600860006101000a81548173ffffffffffffffffffffffffffffffffffffffff021916908373ffffffffffffffffffffffffffffffffffffffff16021790555073985376c953ab63f7c5466d82a2ee2341df76a90d600760006101000a81548173ffffffffffffffffffffffffffffffffffffffff021916908373ffffffffffffffffffffffffffffffffffffffff1602179055506001601060008282546200025c919062000b2f565b9250508190555085600f90816200027491906200099d565b5060016011819055506001600e6000808152602001908152602001600020819055506000600e600060018152602001908152602001600020819055506000600e600060028152602001908152602001600020819055506000601281905550505050505050505062000b8c565b600033905090565b6000604051905090565b600080fd5b600080fd5b600080fd5b600080fd5b6000601f19601f8301169050919050565b7f4e487b7100000000000000000000000000000000000000000000000000000000600052604160045260246000fd5b620003518262000306565b810181811067ffffffffffffffff8211171562000373576200037262000317565b5b80604052505050565b600062000388620002e8565b905062000396828262000346565b919050565b600067ffffffffffffffff821115620003b957620003b862000317565b5b620003c48262000306565b9050602081019050919050565b60005b83811015620003f1578082015181840152602081019050620003d4565b8381111562000401576000848401525b50505050565b60006200041e62000418846200039b565b6200037c565b9050828152602081018484840111156200043d576200043c62000301565b5b6200044a848285620003d1565b509392505050565b600082601f8301126200046a5762000469620002fc565b5b81516200047c84826020860162000407565b91505092915050565b600067ffffffffffffffff821115620004a357620004a262000317565b5b602082029050602081019050919050565b600080fd5b6000819050919050565b620004ce81620004b9565b8114620004da57600080fd5b50565b600081519050620004ee81620004c3565b92915050565b60006200050b620005058462000485565b6200037c565b90508083825260208201905060208402830185811115620005315762000530620004b4565b5b835b818110156200055e5780620005498882620004dd565b84526020840193505060208101905062000533565b5050509392505050565b600082601f83011262000580576200057f620002fc565b5b815162000592848260208601620004f4565b91505092915050565b600080600080600080600080610100898b031215620005bf57620005be620002f2565b5b600089015167ffffffffffffffff811115620005e057620005df620002f7565b5b620005ee8b828c0162000452565b985050602089015167ffffffffffffffff811115620006125762000611620002f7565b5b620006208b828c0162000452565b975050604089015167ffffffffffffffff811115620006445762000643620002f7565b5b620006528b828c0162000452565b965050606089015167ffffffffffffffff811115620006765762000675620002f7565b5b620006848b828c0162000568565b955050608089015167ffffffffffffffff811115620006a857620006a7620002f7565b5b620006b68b828c0162000568565b94505060a089015167ffffffffffffffff811115620006da57620006d9620002f7565b5b620006e88b828c0162000568565b93505060c089015167ffffffffffffffff8111156200070c576200070b620002f7565b5b6200071a8b828c0162000568565b92505060e089015167ffffffffffffffff8111156200073e576200073d620002f7565b5b6200074c8b828c0162000568565b9150509295985092959890939650565b600081519050919050565b7f4e487b7100000000000000000000000000000000000000000000000000000000600052602260045260246000fd5b60006002820490506001821680620007af57607f821691505b602082108103620007c557620007c462000767565b5b50919050565b60008190508160005260206000209050919050565b60006020601f8301049050919050565b600082821b905092915050565b6000600883026200082f7fffffffffffffffffffffffffffffffffffffffffffffffffffffffffffffffff82620007f0565b6200083b8683620007f0565b95508019841693508086168417925050509392505050565b6000819050919050565b60006200087e620008786200087284620004b9565b62000853565b620004b9565b9050919050565b6000819050919050565b6200089a836200085d565b620008b2620008a98262000885565b848454620007fd565b825550505050565b600090565b620008c9620008ba565b620008d68184846200088f565b505050565b5b81811015620008fe57620008f2600082620008bf565b600181019050620008dc565b5050565b601f8211156200094d576200091781620007cb565b6200092284620007e0565b8101602085101562000932578190505b6200094a6200094185620007e0565b830182620008db565b50505b505050565b600082821c905092915050565b6000620009726000198460080262000952565b1980831691505092915050565b60006200098d83836200095f565b9150826002028217905092915050565b620009a8826200075c565b67ffffffffffffffff811115620009c457620009c362000317565b5b620009d0825462000796565b620009dd82828562000902565b600060209050601f83116001811462000a15576000841562000a00578287015190505b62000a0c85826200097f565b86555062000a7c565b601f19841662000a2586620007cb565b60005b8281101562000a4f5784890151825560018201915060208501945060208101905062000a28565b8683101562000a6f578489015162000a6b601f8916826200095f565b8355505b6001600288020188555050505b505050505050565b7f4e487b7100000000000000000000000000000000000000000000000000000000600052603260045260246000fd5b7f4e487b7100000000000000000000000000000000000000000000000000000000600052601160045260246000fd5b600062000aef82620004b9565b91507fffffffffffffffffffffffffffffffffffffffffffffffffffffffffffffffff820362000b245762000b2362000ab3565b5b600182019050919050565b600062000b3c82620004b9565b915062000b4983620004b9565b9250827fffffffffffffffffffffffffffffffffffffffffffffffffffffffffffffffff0382111562000b815762000b8062000ab3565b5b828201905092915050565b6153858062000b9c6000396000f3fe6080604052600436106101c25760003560e01c80637f396dfb116100f7578063b88d4fde11610095578063d9a7b19711610064578063d9a7b1971461062e578063e985e9c514610657578063edac985b14610694578063f2d5dd5e146106bd576101c2565b8063b88d4fde14610574578063be3245cd1461059d578063c87b56dd146105c8578063d47573d414610605576101c2565b80638e4e9b02116100d15780638e4e9b02146104db57806395d89b41146104f7578063a22cb46514610522578063a6f9dae11461054b576101c2565b80637f396dfb1461046d578063832dd6f2146104895780638bc26828146104b2576101c2565b806342842e0e116101645780635984deb11161013e5780635984deb11461038d5780636352211e146103ca57806370a08231146104075780637714767d14610444576101c2565b806342842e0e146103125780634c996a901461033b57806355f804b314610364576101c2565b8063095ea7b3116101a0578063095ea7b31461026c57806318160ddd1461029557806323b872dd146102c0578063339595fb146102e9576101c2565b806301ffc9a7146101c757806306fdde0314610204578063081812fc1461022f575b600080fd5b3480156101d357600080fd5b506101ee60048036038101906101e991906134d9565b6106d4565b6040516101fb9190613521565b60405180910390f35b34801561021057600080fd5b506102196107b6565b60405161022691906135d5565b60405180910390f35b34801561023b57600080fd5b506102566004803603810190610251919061362d565b610848565b604051610263919061369b565b60405180910390f35b34801561027857600080fd5b50610293600480360381019061028e91906136e2565b6108cd565b005b3480156102a157600080fd5b506102aa610a29565b6040516102b79190613731565b60405180910390f35b3480156102cc57600080fd5b506102e760048036038101906102e2919061374c565b610a3f565b005b3480156102f557600080fd5b50610310600480360381019061030b919061362d565b610a9f565b005b34801561031e57600080fd5b506103396004803603810190610334919061374c565b610b40565b005b34801561034757600080fd5b50610362600480360381019061035d91906138e7565b610b60565b005b34801561037057600080fd5b5061038b600480360381019061038691906139e5565b610f9a565b005b34801561039957600080fd5b506103b460048036038101906103af919061362d565b611044565b6040516103c191906135d5565b60405180910390f35b3480156103d657600080fd5b506103f160048036038101906103ec919061362d565b6111d4565b6040516103fe919061369b565b60405180910390f35b34801561041357600080fd5b5061042e60048036038101906104299190613a2e565b611285565b60405161043b9190613731565b60405180910390f35b34801561045057600080fd5b5061046b60048036038101906104669190613a5b565b61133c565b005b610487600480360381019061048291906138e7565b611485565b005b34801561049557600080fd5b506104b060048036038101906104ab919061362d565b61194f565b005b3480156104be57600080fd5b506104d960048036038101906104d49190613a5b565b611a34565b005b6104f560048036038101906104f091906138e7565b611b7d565b005b34801561050357600080fd5b5061050c61209a565b60405161051991906135d5565b60405180910390f35b34801561052e57600080fd5b5061054960048036038101906105449190613aee565b61212c565b005b34801561055757600080fd5b50610572600480360381019061056d9190613a2e565b612187565b005b34801561058057600080fd5b5061059b60048036038101906105969190613bcf565b6122e4565b005b3480156105a957600080fd5b506105b2612346565b6040516105bf919061369b565b60405180910390f35b3480156105d457600080fd5b506105ef60048036038101906105ea919061362d565b61236c565b6040516105fc91906135d5565b60405180910390f35b34801561061157600080fd5b5061062c60048036038101906106279190613c52565b6123e8565b005b34801561063a57600080fd5b5061065560048036038101906106509190613d55565b612525565b005b34801561066357600080fd5b5061067e60048036038101906106799190613d9e565b61263e565b60405161068b9190613521565b60405180910390f35b3480156106a057600080fd5b506106bb60048036038101906106b69190613d55565b6126d2565b005b3480156106c957600080fd5b506106d2612754565b005b60007f80ac58cd000000000000000000000000000000000000000000000000000000007bffffffffffffffffffffffffffffffffffffffffffffffffffffffff1916827bffffffffffffffffffffffffffffffffffffffffffffffffffffffff1916148061079f57507f5b5e139f000000000000000000000000000000000000000000000000000000007bffffffffffffffffffffffffffffffffffffffffffffffffffffffff1916827bffffffffffffffffffffffffffffffffffffffffffffffffffffffff1916145b806107af57506107ae826127f5565b5b9050919050565b6060600080546107c590613e0d565b80601f01602080910402602001604051908101604052809291908181526020018280546107f190613e0d565b801561083e5780601f106108135761010080835404028352916020019161083e565b820191906000526020600020905b81548152906001019060200180831161082157829003601f168201915b5050505050905090565b60006108538261285f565b610892576040517f08c379a000000000000000000000000000000000000000000000000000000000815260040161088990613eb0565b60405180910390fd5b6004600083815260200190815260200160002060009054906101000a900473ffffffffffffffffffffffffffffffffffffffff169050919050565b600060115414610912576040517f08c379a000000000000000000000000000000000000000000000000000000000815260040161090990613f1c565b60405180910390fd5b600061091d826111d4565b90508073ffffffffffffffffffffffffffffffffffffffff168373ffffffffffffffffffffffffffffffffffffffff160361098d576040517f08c379a000000000000000000000000000000000000000000000000000000000815260040161098490613fae565b60405180910390fd5b8073ffffffffffffffffffffffffffffffffffffffff166109ac6128cb565b73ffffffffffffffffffffffffffffffffffffffff1614806109db57506109da816109d56128cb565b61263e565b5b610a1a576040517f08c379a0000000000000000000000000000000000000000000000000000000008152600401610a1190614040565b60405180910390fd5b610a2483836128d3565b505050565b60006001601054610a3a919061408f565b905090565b610a50610a4a6128cb565b8261298c565b610a8f576040517f08c379a0000000000000000000000000000000000000000000000000000000008152600401610a8690614135565b60405180910390fd5b610a9a838383612a6a565b505050565b610aa76128cb565b73ffffffffffffffffffffffffffffffffffffffff16600860009054906101000a900473ffffffffffffffffffffffffffffffffffffffff1673ffffffffffffffffffffffffffffffffffffffff1614610b36576040517f08c379a0000000000000000000000000000000000000000000000000000000008152600401610b2d906141a1565b60405180910390fd5b8060128190555050565b610b5b838383604051806020016040528060008152506122e4565b505050565b600260065403610ba5576040517f08c379a0000000000000000000000000000000000000000000000000000000008152600401610b9c9061420d565b60405180910390fd5b60026006819055506001600e60008081526020019081526020016000205414610c03576040517f08c379a0000000000000000000000000000000000000000000000000000000008152600401610bfa90614279565b60405180910390fd5b6001600d6000610c116128cb565b73ffffffffffffffffffffffffffffffffffffffff1673ffffffffffffffffffffffffffffffffffffffff168152602001908152602001600020541015610c8d576040517f08c379a0000000000000000000000000000000000000000000000000000000008152600401610c84906142e5565b60405180910390fd5b6000815111610cd1576040517f08c379a0000000000000000000000000000000000000000000000000000000008152600401610cc890614351565b60405180910390fd5b600481511115610d16576040517f08c379a0000000000000000000000000000000000000000000000000000000008152600401610d0d906143bd565b60405180910390fd5b6000805b8251811015610d8757670de0b6b3a7640000600b6000858481518110610d4357610d426143dd565b5b6020026020010151815260200190815260200160002060040154610d67919061440c565b82610d729190614466565b91508080610d7f906144bc565b915050610d1a565b5073c7ad46e0b8a400bb3c915120d284aafba8fc473573ffffffffffffffffffffffffffffffffffffffff166323b872dd610dc06128cb565b600760009054906101000a900473ffffffffffffffffffffffffffffffffffffffff16846040518463ffffffff1660e01b8152600401610e0293929190614504565b6020604051808303816000875af1158015610e21573d6000803e3d6000fd5b505050506040513d601f19601f82011682018060405250810190610e459190614550565b5060005b8251811015610f4d576000838281518110610e6757610e666143dd565b5b602002602001015190506003811115610eb5576040517f08c379a0000000000000000000000000000000000000000000000000000000008152600401610eac90614351565b60405180910390fd5b600b6000828152602001908152602001600020600101546001600b600084815260200190815260200160002060000154610eef9190614466565b1115610f30576040517f08c379a0000000000000000000000000000000000000000000000000000000008152600401610f27906145c9565b60405180910390fd5b610f3981612cd0565b508080610f45906144bc565b915050610e49565b507f2625f80a8d24fb2b4a5f95be0398a21b27d1ed1677f4a3140fbdd87015b525a4610f776128cb565b83604051610f869291906146a7565b60405180910390a150600160068190555050565b610fa26128cb565b73ffffffffffffffffffffffffffffffffffffffff16600860009054906101000a900473ffffffffffffffffffffffffffffffffffffffff1673ffffffffffffffffffffffffffffffffffffffff1614611031576040517f08c379a0000000000000000000000000000000000000000000000000000000008152600401611028906141a1565b60405180910390fd5b80600f90816110409190614883565b5050565b606061104f8261285f565b61108e576040517f08c379a0000000000000000000000000000000000000000000000000000000008152600401611085906149c7565b60405180910390fd5b6000600c600084815260200190815260200160002054036110e6576040518060400160405280600681526020017f42524f4e5a45000000000000000000000000000000000000000000000000000081525090506111cf565b6001600c6000848152602001908152602001600020540361113e576040518060400160405280600681526020017f53494c564552000000000000000000000000000000000000000000000000000081525090506111cf565b6002600c60008481526020019081526020016000205403611196576040518060400160405280600481526020017f474f4c440000000000000000000000000000000000000000000000000000000081525090506111cf565b6040518060400160405280600781526020017f4449414d4f4e440000000000000000000000000000000000000000000000000081525090505b919050565b6000806002600084815260200190815260200160002060009054906101000a900473ffffffffffffffffffffffffffffffffffffffff169050600073ffffffffffffffffffffffffffffffffffffffff168173ffffffffffffffffffffffffffffffffffffffff160361127c576040517f08c379a000000000000000000000000000000000000000000000000000000000815260040161127390614a59565b60405180910390fd5b80915050919050565b60008073ffffffffffffffffffffffffffffffffffffffff168273ffffffffffffffffffffffffffffffffffffffff16036112f5576040517f08c379a00000000000000000000000000000000000000000000000000000000081526004016112ec90614aeb565b60405180910390fd5b600360008373ffffffffffffffffffffffffffffffffffffffff1673ffffffffffffffffffffffffffffffffffffffff168152602001908152602001600020549050919050565b6113446128cb565b73ffffffffffffffffffffffffffffffffffffffff16600860009054906101000a900473ffffffffffffffffffffffffffffffffffffffff1673ffffffffffffffffffffffffffffffffffffffff16146113d3576040517f08c379a00000000000000000000000000000000000000000000000000000000081526004016113ca906141a1565b60405180910390fd5b80600b60008081526020019081526020016000206002018190555081600b6000600181526020019081526020016000206002018190555082600b6000600281526020019081526020016000206002018190555083600b600060038152602001908152602001600020600201819055507f7f3eb23042093bdf239802495c60dece3a6249a51e7d0830afa71dc7bb184da9848484846040516114779493929190614b0b565b60405180910390a150505050565b6002600654036114ca576040517f08c379a00000000000000000000000000000000000000000000000000000000081526004016114c19061420d565b60405180910390fd5b60026006819055506001600e6000600281526020019081526020016000205414611529576040517f08c379a000000000000000000000000000000000000000000000000000000000815260040161152090614b9c565b60405180910390fd5b600081511161156d576040517f08c379a000000000000000000000000000000000000000000000000000000000815260040161156490614351565b60405180910390fd5b6004815111156115b2576040517f08c379a00000000000000000000000000000000000000000000000000000000081526004016115a9906143bd565b60405180910390fd5b600080601254036116f15760005b825181101561162d57670de0b6b3a7640000600b60008584815181106115e9576115e86143dd565b5b602002602001015181526020019081526020016000206002015461160d919061440c565b826116189190614466565b91508080611625906144bc565b9150506115c0565b5073c7ad46e0b8a400bb3c915120d284aafba8fc473573ffffffffffffffffffffffffffffffffffffffff166323b872dd6116666128cb565b600760009054906101000a900473ffffffffffffffffffffffffffffffffffffffff16846040518463ffffffff1660e01b81526004016116a893929190614504565b6020604051808303816000875af11580156116c7573d6000803e3d6000fd5b505050506040513d601f19601f820116820180604052508101906116eb9190614550565b506117fb565b60005b825181101561174e57600b6000848381518110611714576117136143dd565b5b6020026020010151815260200190815260200160002060020154826117399190614466565b91508080611746906144bc565b9150506116f4565b50803414611791576040517f08c379a000000000000000000000000000000000000000000000000000000000815260040161178890614c08565b60405180910390fd5b600760009054906101000a900473ffffffffffffffffffffffffffffffffffffffff1673ffffffffffffffffffffffffffffffffffffffff166108fc349081150290604051600060405180830381858888f193505050501580156117f9573d6000803e3d6000fd5b505b60005b825181101561190257600083828151811061181c5761181b6143dd565b5b60200260200101519050600381111561186a576040517f08c379a000000000000000000000000000000000000000000000000000000000815260040161186190614351565b60405180910390fd5b600b6000828152602001908152602001600020600101546001600b6000848152602001908152602001600020600001546118a49190614466565b11156118e5576040517f08c379a00000000000000000000000000000000000000000000000000000000081526004016118dc90614c74565b60405180910390fd5b6118ee81612cd0565b5080806118fa906144bc565b9150506117fe565b507f2625f80a8d24fb2b4a5f95be0398a21b27d1ed1677f4a3140fbdd87015b525a461192c6128cb565b8360405161193b9291906146a7565b60405180910390a150600160068190555050565b6119576128cb565b73ffffffffffffffffffffffffffffffffffffffff16600860009054906101000a900473ffffffffffffffffffffffffffffffffffffffff1673ffffffffffffffffffffffffffffffffffffffff16146119e6576040517f08c379a00000000000000000000000000000000000000000000000000000000081526004016119dd906141a1565b60405180910390fd5b60005b6003811015611a3057808214611a00576000611a03565b60015b60ff16600e6000838152602001908152602001600020819055508080611a28906144bc565b9150506119e9565b5050565b611a3c6128cb565b73ffffffffffffffffffffffffffffffffffffffff16600860009054906101000a900473ffffffffffffffffffffffffffffffffffffffff1673ffffffffffffffffffffffffffffffffffffffff1614611acb576040517f08c379a0000000000000000000000000000000000000000000000000000000008152600401611ac2906141a1565b60405180910390fd5b80600b60008081526020019081526020016000206003018190555081600b6000600181526020019081526020016000206003018190555082600b6000600281526020019081526020016000206003018190555083600b600060038152602001908152602001600020600301819055507f7f3eb23042093bdf239802495c60dece3a6249a51e7d0830afa71dc7bb184da984848484604051611b6f9493929190614b0b565b60405180910390a150505050565b600260065403611bc2576040517f08c379a0000000000000000000000000000000000000000000000000000000008152600401611bb99061420d565b60405180910390fd5b60026006819055506001600e6000600181526020019081526020016000205414611c21576040517f08c379a0000000000000000000000000000000000000000000000000000000008152600401611c1890614ce0565b60405180910390fd5b600160096000611c2f6128cb565b73ffffffffffffffffffffffffffffffffffffffff1673ffffffffffffffffffffffffffffffffffffffff1681526020019081526020016000205414611caa576040517f08c379a0000000000000000000000000000000000000000000000000000000008152600401611ca190614d4c565b60405180910390fd5b6000815111611cee576040517f08c379a0000000000000000000000000000000000000000000000000000000008152600401611ce590614351565b60405180910390fd5b600481511115611d33576040517f08c379a0000000000000000000000000000000000000000000000000000000008152600401611d2a906143bd565b60405180910390fd5b60008060125403611e725760005b8251811015611dae57670de0b6b3a7640000600b6000858481518110611d6a57611d696143dd565b5b6020026020010151815260200190815260200160002060030154611d8e919061440c565b82611d999190614466565b91508080611da6906144bc565b915050611d41565b5073c7ad46e0b8a400bb3c915120d284aafba8fc473573ffffffffffffffffffffffffffffffffffffffff166323b872dd611de76128cb565b600760009054906101000a900473ffffffffffffffffffffffffffffffffffffffff16846040518463ffffffff1660e01b8152600401611e2993929190614504565b6020604051808303816000875af1158015611e48573d6000803e3d6000fd5b505050506040513d601f19601f82011682018060405250810190611e6c9190614550565b50611f46565b60005b8251811015611ecf57600b6000848381518110611e9557611e946143dd565b5b602002602001015181526020019081526020016000206003015482611eba9190614466565b91508080611ec7906144bc565b915050611e75565b50803414611edc57600080fd5b600760009054906101000a900473ffffffffffffffffffffffffffffffffffffffff1673ffffffffffffffffffffffffffffffffffffffff166108fc349081150290604051600060405180830381858888f19350505050158015611f44573d6000803e3d6000fd5b505b60005b825181101561204d576000838281518110611f6757611f666143dd565b5b602002602001015190506003811115611fb5576040517f08c379a0000000000000000000000000000000000000000000000000000000008152600401611fac90614351565b60405180910390fd5b600b6000828152602001908152602001600020600101546001600b600084815260200190815260200160002060000154611fef9190614466565b1115612030576040517f08c379a000000000000000000000000000000000000000000000000000000000815260040161202790614c74565b60405180910390fd5b61203981612cd0565b508080612045906144bc565b915050611f49565b507f2625f80a8d24fb2b4a5f95be0398a21b27d1ed1677f4a3140fbdd87015b525a46120776128cb565b836040516120869291906146a7565b60405180910390a150600160068190555050565b6060600180546120a990613e0d565b80601f01602080910402602001604051908101604052809291908181526020018280546120d590613e0d565b80156121225780601f106120f757610100808354040283529160200191612122565b820191906000526020600020905b81548152906001019060200180831161210557829003601f168201915b5050505050905090565b600060115414612171576040517f08c379a000000000000000000000000000000000000000000000000000000000815260040161216890613f1c565b60405180910390fd5b61218361217c6128cb565b8383612db8565b5050565b61218f6128cb565b73ffffffffffffffffffffffffffffffffffffffff16600860009054906101000a900473ffffffffffffffffffffffffffffffffffffffff1673ffffffffffffffffffffffffffffffffffffffff161461221e576040517f08c379a0000000000000000000000000000000000000000000000000000000008152600401612215906141a1565b60405180910390fd5b6000600860009054906101000a900473ffffffffffffffffffffffffffffffffffffffff16905081600860006101000a81548173ffffffffffffffffffffffffffffffffffffffff021916908373ffffffffffffffffffffffffffffffffffffffff1602179055508173ffffffffffffffffffffffffffffffffffffffff168173ffffffffffffffffffffffffffffffffffffffff167f8be0079c531659141344cd1fd0a4f28419497f9722a3daafe3b4186f6b6457e060405160405180910390a35050565b6122f56122ef6128cb565b8361298c565b612334576040517f08c379a000000000000000000000000000000000000000000000000000000000815260040161232b90614135565b60405180910390fd5b61234084848484612f24565b50505050565b600860009054906101000a900473ffffffffffffffffffffffffffffffffffffffff1681565b60606123778261285f565b6123b6576040517f08c379a00000000000000000000000000000000000000000000000000000000081526004016123ad906149c7565b60405180910390fd5b600f6123c183612f80565b6040516020016123d2929190614e2b565b6040516020818303038152906040529050919050565b6123f06128cb565b73ffffffffffffffffffffffffffffffffffffffff16600860009054906101000a900473ffffffffffffffffffffffffffffffffffffffff1673ffffffffffffffffffffffffffffffffffffffff161461247f576040517f08c379a0000000000000000000000000000000000000000000000000000000008152600401612476906141a1565b60405180910390fd5b600b60008281526020019081526020016000206001015482600b6000848152602001908152602001600020600001546124b89190614466565b11156124f9576040517f08c379a00000000000000000000000000000000000000000000000000000000081526004016124f090614c74565b60405180910390fd5b60005b828110156125205761250d82612cd0565b8080612518906144bc565b9150506124fc565b505050565b61252d6128cb565b73ffffffffffffffffffffffffffffffffffffffff16600860009054906101000a900473ffffffffffffffffffffffffffffffffffffffff1673ffffffffffffffffffffffffffffffffffffffff16146125bc576040517f08c379a00000000000000000000000000000000000000000000000000000000081526004016125b3906141a1565b60405180910390fd5b60005b815181101561263a576001600d60008484815181106125e1576125e06143dd565b5b602002602001015173ffffffffffffffffffffffffffffffffffffffff1673ffffffffffffffffffffffffffffffffffffffff168152602001908152602001600020819055508080612632906144bc565b9150506125bf565b5050565b6000600560008473ffffffffffffffffffffffffffffffffffffffff1673ffffffffffffffffffffffffffffffffffffffff16815260200190815260200160002060008373ffffffffffffffffffffffffffffffffffffffff1673ffffffffffffffffffffffffffffffffffffffff16815260200190815260200160002060009054906101000a900460ff16905092915050565b60005b8151811015612750576001600960008484815181106126f7576126f66143dd565b5b602002602001015173ffffffffffffffffffffffffffffffffffffffff1673ffffffffffffffffffffffffffffffffffffffff168152602001908152602001600020819055508080612748906144bc565b9150506126d5565b5050565b61275c6128cb565b73ffffffffffffffffffffffffffffffffffffffff16600860009054906101000a900473ffffffffffffffffffffffffffffffffffffffff1673ffffffffffffffffffffffffffffffffffffffff16146127eb576040517f08c379a00000000000000000000000000000000000000000000000000000000081526004016127e2906141a1565b60405180910390fd5b6000601181905550565b60007f01ffc9a7000000000000000000000000000000000000000000000000000000007bffffffffffffffffffffffffffffffffffffffffffffffffffffffff1916827bffffffffffffffffffffffffffffffffffffffffffffffffffffffff1916149050919050565b60008073ffffffffffffffffffffffffffffffffffffffff166002600084815260200190815260200160002060009054906101000a900473ffffffffffffffffffffffffffffffffffffffff1673ffffffffffffffffffffffffffffffffffffffff1614159050919050565b600033905090565b816004600083815260200190815260200160002060006101000a81548173ffffffffffffffffffffffffffffffffffffffff021916908373ffffffffffffffffffffffffffffffffffffffff160217905550808273ffffffffffffffffffffffffffffffffffffffff16612946836111d4565b73ffffffffffffffffffffffffffffffffffffffff167f8c5be1e5ebec7d5bd14f71427d1e84f3dd0314c0f7b2291e5b200ac8c7c3b92560405160405180910390a45050565b60006129978261285f565b6129d6576040517f08c379a00000000000000000000000000000000000000000000000000000000081526004016129cd90614ec1565b60405180910390fd5b60006129e1836111d4565b90508073ffffffffffffffffffffffffffffffffffffffff168473ffffffffffffffffffffffffffffffffffffffff161480612a235750612a22818561263e565b5b80612a6157508373ffffffffffffffffffffffffffffffffffffffff16612a4984610848565b73ffffffffffffffffffffffffffffffffffffffff16145b91505092915050565b8273ffffffffffffffffffffffffffffffffffffffff16612a8a826111d4565b73ffffffffffffffffffffffffffffffffffffffff1614612ae0576040517f08c379a0000000000000000000000000000000000000000000000000000000008152600401612ad790614f53565b60405180910390fd5b600073ffffffffffffffffffffffffffffffffffffffff168273ffffffffffffffffffffffffffffffffffffffff1603612b4f576040517f08c379a0000000000000000000000000000000000000000000000000000000008152600401612b4690614fe5565b60405180910390fd5b612b5a8383836130e0565b612b656000826128d3565b6001600360008573ffffffffffffffffffffffffffffffffffffffff1673ffffffffffffffffffffffffffffffffffffffff1681526020019081526020016000206000828254612bb5919061408f565b925050819055506001600360008473ffffffffffffffffffffffffffffffffffffffff1673ffffffffffffffffffffffffffffffffffffffff1681526020019081526020016000206000828254612c0c9190614466565b92505081905550816002600083815260200190815260200160002060006101000a81548173ffffffffffffffffffffffffffffffffffffffff021916908373ffffffffffffffffffffffffffffffffffffffff160217905550808273ffffffffffffffffffffffffffffffffffffffff168473ffffffffffffffffffffffffffffffffffffffff167fddf252ad1be2c89b69c2b068fc378daa952ba7f163c4a11628f55a4df523b3ef60405160405180910390a4612ccb8383836130e5565b505050565b6000600b6000838152602001908152602001600020600001549050600b60008381526020019081526020016000206000016000815480929190612d12906144bc565b919050555060106000815480929190612d2a906144bc565b919050555081600c600083815260200190815260200160002081905550600a6000612d536128cb565b73ffffffffffffffffffffffffffffffffffffffff1673ffffffffffffffffffffffffffffffffffffffff1681526020019081526020016000206000815480929190612d9e906144bc565b9190505550612db4612dae6128cb565b826130ea565b5050565b8173ffffffffffffffffffffffffffffffffffffffff168373ffffffffffffffffffffffffffffffffffffffff1603612e26576040517f08c379a0000000000000000000000000000000000000000000000000000000008152600401612e1d90615051565b60405180910390fd5b80600560008573ffffffffffffffffffffffffffffffffffffffff1673ffffffffffffffffffffffffffffffffffffffff16815260200190815260200160002060008473ffffffffffffffffffffffffffffffffffffffff1673ffffffffffffffffffffffffffffffffffffffff16815260200190815260200160002060006101000a81548160ff0219169083151502179055508173ffffffffffffffffffffffffffffffffffffffff168373ffffffffffffffffffffffffffffffffffffffff167f17307eab39ab6107e8899845ad3d59bd9653f200f220920489ca2b5937696c3183604051612f179190613521565b60405180910390a3505050565b612f2f848484612a6a565b612f3b848484846132c3565b612f7a576040517f08c379a0000000000000000000000000000000000000000000000000000000008152600401612f71906150e3565b60405180910390fd5b50505050565b606060008203612fc7576040518060400160405280600181526020017f300000000000000000000000000000000000000000000000000000000000000081525090506130db565b600082905060005b60008214612ff9578080612fe2906144bc565b915050600a82612ff29190615132565b9150612fcf565b60008167ffffffffffffffff811115613015576130146137a4565b5b6040519080825280601f01601f1916602001820160405280156130475781602001600182028036833780820191505090505b5090505b600085146130d457600182613060919061408f565b9150600a8561306f9190615163565b603061307b9190614466565b60f81b818381518110613091576130906143dd565b5b60200101907effffffffffffffffffffffffffffffffffffffffffffffffffffffffffffff1916908160001a905350600a856130cd9190615132565b945061304b565b8093505050505b919050565b505050565b505050565b600073ffffffffffffffffffffffffffffffffffffffff168273ffffffffffffffffffffffffffffffffffffffff1603613159576040517f08c379a0000000000000000000000000000000000000000000000000000000008152600401613150906151e0565b60405180910390fd5b6131628161285f565b156131a2576040517f08c379a00000000000000000000000000000000000000000000000000000000081526004016131999061524c565b60405180910390fd5b6131ae600083836130e0565b6001600360008473ffffffffffffffffffffffffffffffffffffffff1673ffffffffffffffffffffffffffffffffffffffff16815260200190815260200160002060008282546131fe9190614466565b92505081905550816002600083815260200190815260200160002060006101000a81548173ffffffffffffffffffffffffffffffffffffffff021916908373ffffffffffffffffffffffffffffffffffffffff160217905550808273ffffffffffffffffffffffffffffffffffffffff16600073ffffffffffffffffffffffffffffffffffffffff167fddf252ad1be2c89b69c2b068fc378daa952ba7f163c4a11628f55a4df523b3ef60405160405180910390a46132bf600083836130e5565b5050565b60006132e48473ffffffffffffffffffffffffffffffffffffffff1661344a565b1561343d578373ffffffffffffffffffffffffffffffffffffffff1663150b7a0261330d6128cb565b8786866040518563ffffffff1660e01b815260040161332f94939291906152c1565b6020604051808303816000875af192505050801561336b57506040513d601f19601f820116820180604052508101906133689190615322565b60015b6133ed573d806000811461339b576040519150601f19603f3d011682016040523d82523d6000602084013e6133a0565b606091505b5060008151036133e5576040517f08c379a00000000000000000000000000000000000000000000000000000000081526004016133dc906150e3565b60405180910390fd5b805181602001fd5b63150b7a0260e01b7bffffffffffffffffffffffffffffffffffffffffffffffffffffffff1916817bffffffffffffffffffffffffffffffffffffffffffffffffffffffff191614915050613442565b600190505b949350505050565b6000808273ffffffffffffffffffffffffffffffffffffffff163b119050919050565b6000604051905090565b600080fd5b600080fd5b60007fffffffff0000000000000000000000000000000000000000000000000000000082169050919050565b6134b681613481565b81146134c157600080fd5b50565b6000813590506134d3816134ad565b92915050565b6000602082840312156134ef576134ee613477565b5b60006134fd848285016134c4565b91505092915050565b60008115159050919050565b61351b81613506565b82525050565b60006020820190506135366000830184613512565b92915050565b600081519050919050565b600082825260208201905092915050565b60005b8381101561357657808201518184015260208101905061355b565b83811115613585576000848401525b50505050565b6000601f19601f8301169050919050565b60006135a78261353c565b6135b18185613547565b93506135c1818560208601613558565b6135ca8161358b565b840191505092915050565b600060208201905081810360008301526135ef818461359c565b905092915050565b6000819050919050565b61360a816135f7565b811461361557600080fd5b50565b60008135905061362781613601565b92915050565b60006020828403121561364357613642613477565b5b600061365184828501613618565b91505092915050565b600073ffffffffffffffffffffffffffffffffffffffff82169050919050565b60006136858261365a565b9050919050565b6136958161367a565b82525050565b60006020820190506136b0600083018461368c565b92915050565b6136bf8161367a565b81146136ca57600080fd5b50565b6000813590506136dc816136b6565b92915050565b600080604083850312156136f9576136f8613477565b5b6000613707858286016136cd565b925050602061371885828601613618565b9150509250929050565b61372b816135f7565b82525050565b60006020820190506137466000830184613722565b92915050565b60008060006060848603121561376557613764613477565b5b6000613773868287016136cd565b9350506020613784868287016136cd565b925050604061379586828701613618565b9150509250925092565b600080fd5b7f4e487b7100000000000000000000000000000000000000000000000000000000600052604160045260246000fd5b6137dc8261358b565b810181811067ffffffffffffffff821117156137fb576137fa6137a4565b5b80604052505050565b600061380e61346d565b905061381a82826137d3565b919050565b600067ffffffffffffffff82111561383a576138396137a4565b5b602082029050602081019050919050565b600080fd5b600061386361385e8461381f565b613804565b905080838252602082019050602084028301858111156138865761388561384b565b5b835b818110156138af578061389b8882613618565b845260208401935050602081019050613888565b5050509392505050565b600082601f8301126138ce576138cd61379f565b5b81356138de848260208601613850565b91505092915050565b6000602082840312156138fd576138fc613477565b5b600082013567ffffffffffffffff81111561391b5761391a61347c565b5b613927848285016138b9565b91505092915050565b600080fd5b600067ffffffffffffffff8211156139505761394f6137a4565b5b6139598261358b565b9050602081019050919050565b82818337600083830152505050565b600061398861398384613935565b613804565b9050828152602081018484840111156139a4576139a3613930565b5b6139af848285613966565b509392505050565b600082601f8301126139cc576139cb61379f565b5b81356139dc848260208601613975565b91505092915050565b6000602082840312156139fb576139fa613477565b5b600082013567ffffffffffffffff811115613a1957613a1861347c565b5b613a25848285016139b7565b91505092915050565b600060208284031215613a4457613a43613477565b5b6000613a52848285016136cd565b91505092915050565b60008060008060808587031215613a7557613a74613477565b5b6000613a8387828801613618565b9450506020613a9487828801613618565b9350506040613aa587828801613618565b9250506060613ab687828801613618565b91505092959194509250565b613acb81613506565b8114613ad657600080fd5b50565b600081359050613ae881613ac2565b92915050565b60008060408385031215613b0557613b04613477565b5b6000613b13858286016136cd565b9250506020613b2485828601613ad9565b9150509250929050565b600067ffffffffffffffff821115613b4957613b486137a4565b5b613b528261358b565b9050602081019050919050565b6000613b72613b6d84613b2e565b613804565b905082815260208101848484011115613b8e57613b8d613930565b5b613b99848285613966565b509392505050565b600082601f830112613bb657613bb561379f565b5b8135613bc6848260208601613b5f565b91505092915050565b60008060008060808587031215613be957613be8613477565b5b6000613bf7878288016136cd565b9450506020613c08878288016136cd565b9350506040613c1987828801613618565b925050606085013567ffffffffffffffff811115613c3a57613c3961347c565b5b613c4687828801613ba1565b91505092959194509250565b60008060408385031215613c6957613c68613477565b5b6000613c7785828601613618565b9250506020613c8885828601613618565b9150509250929050565b600067ffffffffffffffff821115613cad57613cac6137a4565b5b602082029050602081019050919050565b6000613cd1613ccc84613c92565b613804565b90508083825260208201905060208402830185811115613cf457613cf361384b565b5b835b81811015613d1d5780613d0988826136cd565b845260208401935050602081019050613cf6565b5050509392505050565b600082601f830112613d3c57613d3b61379f565b5b8135613d4c848260208601613cbe565b91505092915050565b600060208284031215613d6b57613d6a613477565b5b600082013567ffffffffffffffff811115613d8957613d8861347c565b5b613d9584828501613d27565b91505092915050565b60008060408385031215613db557613db4613477565b5b6000613dc3858286016136cd565b9250506020613dd4858286016136cd565b9150509250929050565b7f4e487b7100000000000000000000000000000000000000000000000000000000600052602260045260246000fd5b60006002820490506001821680613e2557607f821691505b602082108103613e3857613e37613dde565b5b50919050565b7f4552433732313a20617070726f76656420717565727920666f72206e6f6e657860008201527f697374656e7420746f6b656e0000000000000000000000000000000000000000602082015250565b6000613e9a602c83613547565b9150613ea582613e3e565b604082019050919050565b60006020820190508181036000830152613ec981613e8d565b9050919050565b7f596f752063616e206e6f742073656c6c00000000000000000000000000000000600082015250565b6000613f06601083613547565b9150613f1182613ed0565b602082019050919050565b60006020820190508181036000830152613f3581613ef9565b9050919050565b7f4552433732313a20617070726f76616c20746f2063757272656e74206f776e6560008201527f7200000000000000000000000000000000000000000000000000000000000000602082015250565b6000613f98602183613547565b9150613fa382613f3c565b604082019050919050565b60006020820190508181036000830152613fc781613f8b565b9050919050565b7f4552433732313a20617070726f76652063616c6c6572206973206e6f7420746f60008201527f6b656e206f776e6572206e6f7220617070726f76656420666f7220616c6c0000602082015250565b600061402a603e83613547565b915061403582613fce565b604082019050919050565b600060208201905081810360008301526140598161401d565b9050919050565b7f4e487b7100000000000000000000000000000000000000000000000000000000600052601160045260246000fd5b600061409a826135f7565b91506140a5836135f7565b9250828210156140b8576140b7614060565b5b828203905092915050565b7f4552433732313a207472616e736665722063616c6c6572206973206e6f74206f60008201527f776e6572206e6f7220617070726f766564000000000000000000000000000000602082015250565b600061411f603183613547565b915061412a826140c3565b604082019050919050565b6000602082019050818103600083015261414e81614112565b9050919050565b7f4f776e61626c653a2063616c6c6572206973206e6f7420746865206f776e6572600082015250565b600061418b602083613547565b915061419682614155565b602082019050919050565b600060208201905081810360008301526141ba8161417e565b9050919050565b7f5265656e7472616e637947756172643a207265656e7472616e742063616c6c00600082015250565b60006141f7601f83613547565b9150614202826141c1565b602082019050919050565b60006020820190508181036000830152614226816141ea565b9050919050565b7f507269766174652073616c65206973206e6f7420617661696c61626c652e0000600082015250565b6000614263601e83613547565b915061426e8261422d565b602082019050919050565b6000602082019050818103600083015261429281614256565b9050919050565b7f556e6964656e7469666965642077616c6c657420616464726573732e00000000600082015250565b60006142cf601c83613547565b91506142da82614299565b602082019050919050565b600060208201905081810360008301526142fe816142c2565b9050919050565b7f57726f6e672063617465676f72792e0000000000000000000000000000000000600082015250565b600061433b600f83613547565b915061434682614305565b602082019050919050565b6000602082019050818103600083015261436a8161432e565b9050919050565b7f4d6178696d756d206d696e7420636f756e742065786365656465642e00000000600082015250565b60006143a7601c83613547565b91506143b282614371565b602082019050919050565b600060208201905081810360008301526143d68161439a565b9050919050565b7f4e487b7100000000000000000000000000000000000000000000000000000000600052603260045260246000fd5b6000614417826135f7565b9150614422836135f7565b9250817fffffffffffffffffffffffffffffffffffffffffffffffffffffffffffffffff048311821515161561445b5761445a614060565b5b828202905092915050565b6000614471826135f7565b915061447c836135f7565b9250827fffffffffffffffffffffffffffffffffffffffffffffffffffffffffffffffff038211156144b1576144b0614060565b5b828201905092915050565b60006144c7826135f7565b91507fffffffffffffffffffffffffffffffffffffffffffffffffffffffffffffffff82036144f9576144f8614060565b5b600182019050919050565b6000606082019050614519600083018661368c565b614526602083018561368c565b6145336040830184613722565b949350505050565b60008151905061454a81613ac2565b92915050565b60006020828403121561456657614565613477565b5b60006145748482850161453b565b91505092915050565b7f4578636565647320746f74616c20737570706c792e0000000000000000000000600082015250565b60006145b3601583613547565b91506145be8261457d565b602082019050919050565b600060208201905081810360008301526145e2816145a6565b9050919050565b600081519050919050565b600082825260208201905092915050565b6000819050602082019050919050565b61461e816135f7565b82525050565b60006146308383614615565b60208301905092915050565b6000602082019050919050565b6000614654826145e9565b61465e81856145f4565b935061466983614605565b8060005b8381101561469a5781516146818882614624565b975061468c8361463c565b92505060018101905061466d565b5085935050505092915050565b60006040820190506146bc600083018561368c565b81810360208301526146ce8184614649565b90509392505050565b60008190508160005260206000209050919050565b60006020601f8301049050919050565b600082821b905092915050565b6000600883026147397fffffffffffffffffffffffffffffffffffffffffffffffffffffffffffffffff826146fc565b61474386836146fc565b95508019841693508086168417925050509392505050565b6000819050919050565b600061478061477b614776846135f7565b61475b565b6135f7565b9050919050565b6000819050919050565b61479a83614765565b6147ae6147a682614787565b848454614709565b825550505050565b600090565b6147c36147b6565b6147ce818484614791565b505050565b5b818110156147f2576147e76000826147bb565b6001810190506147d4565b5050565b601f82111561483757614808816146d7565b614811846146ec565b81016020851015614820578190505b61483461482c856146ec565b8301826147d3565b50505b505050565b600082821c905092915050565b600061485a6000198460080261483c565b1980831691505092915050565b60006148738383614849565b9150826002028217905092915050565b61488c8261353c565b67ffffffffffffffff8111156148a5576148a46137a4565b5b6148af8254613e0d565b6148ba8282856147f6565b600060209050601f8311600181146148ed57600084156148db578287015190505b6148e58582614867565b86555061494d565b601f1984166148fb866146d7565b60005b82811015614923578489015182556001820191506020850194506020810190506148fe565b86831015614940578489015161493c601f891682614849565b8355505b6001600288020188555050505b505050505050565b7f4552433732314d657461646174613a2055524920717565727920666f72206e6f60008201527f6e6578697374656e7420746f6b656e0000000000000000000000000000000000602082015250565b60006149b1602f83613547565b91506149bc82614955565b604082019050919050565b600060208201905081810360008301526149e0816149a4565b9050919050565b7f4552433732313a206f776e657220717565727920666f72206e6f6e657869737460008201527f656e7420746f6b656e0000000000000000000000000000000000000000000000602082015250565b6000614a43602983613547565b9150614a4e826149e7565b604082019050919050565b60006020820190508181036000830152614a7281614a36565b9050919050565b7f4552433732313a2062616c616e636520717565727920666f7220746865207a6560008201527f726f206164647265737300000000000000000000000000000000000000000000602082015250565b6000614ad5602a83613547565b9150614ae082614a79565b604082019050919050565b60006020820190508181036000830152614b0481614ac8565b9050919050565b6000608082019050614b206000830187613722565b614b2d6020830186613722565b614b3a6040830185613722565b614b476060830184613722565b95945050505050565b7f5075626c69632073616c65206973206e6f7420617661696c61626c652e000000600082015250565b6000614b86601d83613547565b9150614b9182614b50565b602082019050919050565b60006020820190508181036000830152614bb581614b79565b9050919050565b7f77726f6e67207072696365000000000000000000000000000000000000000000600082015250565b6000614bf2600b83613547565b9150614bfd82614bbc565b602082019050919050565b60006020820190508181036000830152614c2181614be5565b9050919050565b7f4578636565647320746f74616c20737570706c79000000000000000000000000600082015250565b6000614c5e601483613547565b9150614c6982614c28565b602082019050919050565b60006020820190508181036000830152614c8d81614c51565b9050919050565b7f50726573616c65206973206e6f7420617661696c61626c652e00000000000000600082015250565b6000614cca601983613547565b9150614cd582614c94565b602082019050919050565b60006020820190508181036000830152614cf981614cbd565b9050919050565b7f596f7520617265206e6f742077686974656c69737465642e0000000000000000600082015250565b6000614d36601883613547565b9150614d4182614d00565b602082019050919050565b60006020820190508181036000830152614d6581614d29565b9050919050565b600081905092915050565b60008154614d8481613e0d565b614d8e8186614d6c565b94506001821660008114614da95760018114614dbe57614df1565b60ff1983168652811515820286019350614df1565b614dc7856146d7565b60005b83811015614de957815481890152600182019150602081019050614dca565b838801955050505b50505092915050565b6000614e058261353c565b614e0f8185614d6c565b9350614e1f818560208601613558565b80840191505092915050565b6000614e378285614d77565b9150614e438284614dfa565b91508190509392505050565b7f4552433732313a206f70657261746f7220717565727920666f72206e6f6e657860008201527f697374656e7420746f6b656e0000000000000000000000000000000000000000602082015250565b6000614eab602c83613547565b9150614eb682614e4f565b604082019050919050565b60006020820190508181036000830152614eda81614e9e565b9050919050565b7f4552433732313a207472616e736665722066726f6d20696e636f72726563742060008201527f6f776e6572000000000000000000000000000000000000000000000000000000602082015250565b6000614f3d602583613547565b9150614f4882614ee1565b604082019050919050565b60006020820190508181036000830152614f6c81614f30565b9050919050565b7f4552433732313a207472616e7366657220746f20746865207a65726f2061646460008201527f7265737300000000000000000000000000000000000000000000000000000000602082015250565b6000614fcf602483613547565b9150614fda82614f73565b604082019050919050565b60006020820190508181036000830152614ffe81614fc2565b9050919050565b7f4552433732313a20617070726f766520746f2063616c6c657200000000000000600082015250565b600061503b601983613547565b915061504682615005565b602082019050919050565b6000602082019050818103600083015261506a8161502e565b9050919050565b7f4552433732313a207472616e7366657220746f206e6f6e20455243373231526560008201527f63656976657220696d706c656d656e7465720000000000000000000000000000602082015250565b60006150cd603283613547565b91506150d882615071565b604082019050919050565b600060208201905081810360008301526150fc816150c0565b9050919050565b7f4e487b7100000000000000000000000000000000000000000000000000000000600052601260045260246000fd5b600061513d826135f7565b9150615148836135f7565b92508261515857615157615103565b5b828204905092915050565b600061516e826135f7565b9150615179836135f7565b92508261518957615188615103565b5b828206905092915050565b7f4552433732313a206d696e7420746f20746865207a65726f2061646472657373600082015250565b60006151ca602083613547565b91506151d582615194565b602082019050919050565b600060208201905081810360008301526151f9816151bd565b9050919050565b7f4552433732313a20746f6b656e20616c7265616479206d696e74656400000000600082015250565b6000615236601c83613547565b915061524182615200565b602082019050919050565b6000602082019050818103600083015261526581615229565b9050919050565b600081519050919050565b600082825260208201905092915050565b60006152938261526c565b61529d8185615277565b93506152ad818560208601613558565b6152b68161358b565b840191505092915050565b60006080820190506152d6600083018761368c565b6152e3602083018661368c565b6152f06040830185613722565b81810360608301526153028184615288565b905095945050505050565b60008151905061531c816134ad565b92915050565b60006020828403121561533857615337613477565b5b60006153468482850161530d565b9150509291505056fea264697066735822122052a86127f421aec76040899084d0dcc8aad8ad6d375f1ac73474c7651a182bd164736f6c634300080f0033",
  "linkReferences": {},
  "deployedLinkReferences": {}
}